:10000000000002204519000071190000711900005C
:1000100071190000711900007119000071190000B8
:1000200071190000711900007119000071190000A8
:1000300071190000711900007119000029050000F4
:100040007119000039040000350800007119000022
:100050007119000071190000711900007119000078
:1000600071190000711900007119000021040000CD
:1000700071190000E50800008D080000850B0000E4
:100080007119000071190000711900007119000048
:100090007119000071190000711900007119000038
:1000A0007119000071190000711900007119000028
:1000B0007119000071190000711900007119000018
:1000C0007119000071190000711900007119000008
:1000D00071190000711900007119000010B5054C6C
:1000E000237833B9044B13B10448AFF300800123E4
:1000F000237010BD7400002000000000B423000035
:1001000008B5064B1BB106480649AFF30080064808
:10011000036813B1054B03B1984708BD0000000008
:10012000B4230000780000207000002000000000D0
:10013000154B002B08BF134B9D46A3F5803A0021B9
:100140008B460F461348144A121A01F030FE0F4B2B
:10015000002B00D098470E4B002B00D09847002072
:10016000002104000D000D48002802D00C48AFF318
:10017000008001F0EDFD2000290000F0F9F901F008
:10018000D3FD00BF000008000000022000000000B6
:100190000000000074000020B800002000000000F3
:1001A0000000000080B485B000AF786039607B68E3
:1001B00003F10473DA003B6813449B00FB60FB68A7
:1001C0001B6818461437BD465DF8047B704700BFB6
:1001D00080B483B000AF7860044B7A68C3F81C2108
:1001E0000C37BD465DF8047B704700BF00600040DF
:1001F00080B582B000AF03463960FB71FB79002BFC
:100200001FD0FB79012B19D0FB79022B13D0FB797E
:10021000032B0DD0FB79042B07D0FB79052B02D1E2
:1002200041F6FF730FE000230DE04FF6FF730AE085
:100230004FF6FF7307E04FF6FF7304E04FF6FF73CE
:1002400001E04FF6FF733A68134103F00103002BFE
:1002500004D10C4840F2A62100F0DCFCFA791346E8
:10026000DB0013449B001C3303F1804303F5C043C0
:1002700018463968FFF796FF034618460837BD460B
:1002800080BD00BFDC1D000080B500AF01200A2149
:10029000FFF7AEFF0346002B0CBF00230123DAB2A9
:1002A0002B4B1A7001200921FFF7A2FF0346002BF8
:1002B0000CBF00230123DAB2254B5A7001200B2119
:1002C000FFF796FF0346002B0CBF00230123DAB291
:1002D0001F4B9A7001200C21FFF78AFF0346002B69
:1002E0000CBF00230123DAB2194BDA7003200F216F
:1002F000FFF77EFF0346002B0CBF00230123DAB279
:10030000134B1A7103200321FFF772FF0346002BE2
:100310000CBF00230123DAB20D4B5A7103200421D4
:10032000FFF766FF0346002B0CBF00230123DAB260
:10033000074B9A7103200521FFF75AFF0346002B54
:100340000CBF00230123DAB2014BDA7180BD00BF7C
:100350009000002080B500AF02200021FFF748FF89
:100360000346002B0CBF00230123DAB22B4B1A707B
:1003700002200121FFF73CFF0346002B0CBF0023A6
:100380000123DAB2254B5A7002200221FFF730FF19
:100390000346002B0CBF00230123DAB21F4B9A70D7
:1003A00003200621FFF724FF0346002B0CBF002388
:1003B0000123DAB2194BDA7003200721FFF718FF87
:1003C0000346002B0CBF00230123DAB2134B1A7132
:1003D00003200821FFF70CFF0346002B0CBF00236E
:1003E0000123DAB20D4B5A7103200D21FFF700FFF4
:1003F0000346002B0CBF00230123DAB2074B9A718E
:1004000003200E21FFF7F4FE0346002B0CBF002350
:100410000123DAB2014BDA7180BD00BF98000020E1
:1004200080B500AF4AF6AA20FFF7D2FEFFF72CFFF7
:10043000FFF790FF80BD00BF80B500AF45F255507B
:10044000FFF7C6FEFFF720FFFFF784FF80BD00BF68
:1004500080B483B000AF03463960FB7197F9073071
:10046000002B0BDA0D49FB7903F00F03043B3A68CC
:10047000D2B25201D2B20B441A7609E0084997F978
:1004800007303A68D2B25201D2B20B4483F800234B
:100490000C37BD465DF8047B704700BF00ED00E0FF
:1004A00000E100E080B582B000AF78607B68013B7E
:1004B000B3F1807F01D301230FE00A4B7A68013A40
:1004C0005A604FF0FF300721FFF7C2FF054B0022B3
:1004D0009A60044B07221A60002318460837BD466D
:1004E00080BD00BF10E000E080B582B000AF0C4BD3
:1004F0001B687B603B46184601F0ECF87B681B0EDE
:100500000F2B0AD93B78032B07D1064B054A1268FB
:1005100022F0500242F010021A600837BD4680BD3A
:10052000FC81E00FC0800C4080B400AF044B1B681E
:100530005A1C034B1A60BD465DF8047B704700BF30
:10054000A000002080B485B000AF7860074B1B6826
:10055000FB6000BF054B1A68FB68D21A7B689A42A1
:10056000F8D31437BD465DF8047B7047A000002027
:1005700080B5ADF54E7D00AFFFF7B6FF6B4B6B4A14
:10058000126842F480421A60684B684A126A42F06C
:1005900004021A6200BF654BDB6A03F00803002BFC
:1005A000F9D0624B02225A62614800F08FFD024688
:1005B000604BA3FB02139B091846FFF773FF03462A
:1005C000002B00D0FEE700F099FA00F0CFFA01F01E
:1005D00039FB002001F086FB012001F061FB00F0F7
:1005E00091F900F065F900F037F940F6CA0000F023
:1005F0006BF940F6B60000F03BF940F6CA03C7F8C5
:10060000303340F6B603C7F8343307F5CA724A4BA5
:1006100011461A464FF4C873084611461A4601F0AF
:10062000BDFB3A1D454B11461A464FF4C8730846A8
:1006300011461A4601F0B2FB414B1B78DBB2012B8D
:1006400024D0022B00D06CE00023C7F82C3318E034
:1006500007F5CA73D7F82C2353F82230184600F058
:1006600033F93B1DD7F82C2353F82230184600F0FD
:10067000FFF81420FFF766FFD7F82C330133C7F8D3
:100680002C33D7F82C33632BE2DD4AE02D4B1B785B
:10069000DBB2462202FB03F303F25463C7F82833AC
:1006A000284B5B78DBB2462202FB03F303F5C863F9
:1006B000C7F82433D7F83023D7F828339A4205D91E
:1006C000D7F83033013BC7F830330AE0D7F830238E
:1006D000D7F828339A4204D2D7F830330133C7F819
:1006E0003033D7F8300300F0EFF8D7F83423D7F8D9
:1006F00024339A4205D9D7F83433013BC7F8343351
:100700000AE0D7F83423D7F824339A4204D2D7F832
:1007100034330133C7F83433D7F8340300F0A8F882
:1007200000BF0120FFF70EFF86E700BF00800C40EE
:1007300050000200D34D62102C1E0000BC1F0000B0
:10074000AD000020B000002080B483B000AF0346AD
:10075000FB71084B97F907205209F97901F01F0145
:10076000012000FA01F143F822100C37BD465DF874
:10077000047B704700E100E080B485B000AFF86012
:10078000B9607A60FA68BB681B01134438337A6831
:100790005A601437BD465DF8047B704780B485B05D
:1007A00000AFF860B9607A60FA68BB6803331B0178
:1007B00013447A685A601437BD465DF8047B70476D
:1007C00080B483B000AF786039607B683A685A6261
:1007D0000C37BD465DF8047B704700BF80B483B022
:1007E00000AF786039607B683A689A610C37BD4623
:1007F0005DF8047B704700BF80B483B000AF7860C1
:1008000039607B68DA683B681A437B68DA600C37CA
:10081000BD465DF8047B704780B483B000AF78605C
:1008200039607B683A68DA610C37BD465DF8047B55
:10083000704700BF80B500AF05480121FFF7CEFF2C
:10084000044B1B68024801211A46FFF795FF80BD43
:1008500000000140A400002080B500AF0348012142
:10086000FFF7CAFF0220FFF76FFF80BD00000140C5
:1008700080B483B000AF7860034B7A681A600C379D
:10088000BD465DF8047B7047A400002080B500AF32
:1008900005480121FFF7A2FF044B1B680248022113
:1008A0001A46FFF769FF80BD000C0140A800002038
:1008B00080B500AF03480121FFF79EFF0E20FFF730
:1008C00043FF80BD000C014080B483B000AF78606E
:1008D000034B7A681A600C37BD465DF8047B70479D
:1008E000A800002080B500AF05480121FFF776FF82
:1008F000034800214FF49E72FFF73EFF80BD00BF0A
:100900000008014080B58CB000AF6548012100F0BF
:100910005FFB6448012100F05BFB6348012100F0AC
:1009200057FB6248012100F053FB042002210422FE
:10093000002300F035FE032002210422002300F0F2
:100940002FFE00200C210422002300F029FE554830
:1009500000F0BCFB0246564BA3FB02131B09554893
:100960001946FFF759FF4F4800F0B0FB0246504BC5
:10097000A3FB02131B0950481946FFF74DFF4F48D0
:100980004FF41E71FFF748FF4A480021FFF718FF98
:1009900049480021FFF714FF48480021FFF710FFE6
:1009A000474A07F124031068516803C31189927AFA
:1009B00019809A7007F1140300221A600433002290
:1009C0001A60043300221A60043300221A700133C3
:1009D00001233B7501237B750423BB753B1D00225E
:1009E0001A60043300221A60043300221A600433B0
:1009F00000221A70013301233B7101237B712D48C2
:100A000001210022FFF7CAFE2A4801210022FFF738
:100A1000B3FE07F12403274801211A4600F022FF04
:100A2000244B284A9A6207F114032248194600F021
:100A300091FE214802210022FFF7B0FE1E4802214C
:100A40000022FFF799FE07F124031B4802211A46F2
:100A500000F008FF184B1C4A9A6207F1140316486D
:100A6000194600F077FE154800210022FFF796FE98
:100A7000124800210022FFF77FFE07F124030F48F0
:100A800000211A4600F0EEFE0C4B4FF001129A6264
:100A90003B1D0A48194600F05DFE3037BD4680BD5B
:100AA00000D204000052040000820400007204001E
:100AB0009D82975300000140000C01400008014056
:100AC0004C210000020003000400010080B483B048
:100AD00000AF0346FB71084B97F907205209F979DB
:100AE00001F01F01012000FA01F143F822100C3738
:100AF000BD465DF8047B704700E100E080B400AFC4
:100B0000154A154B5B6C43F4005343F002035364E6
:100B1000124B14221A67114B0122DA67104B4FF463
:100B200018525A610E4B40F60542DA600C4B41F602
:100B3000F9729A640A4B40F203125A65094B01227A
:100B40001A70094B09221A70074B09225A70BD46C8
:100B50005DF8047B704700BF00800C4000600040DF
:100B600000C40040AD000020B000002080B500AF00
:100B7000034B0422DA640F20FFF7A8FF80BD00BFFB
:100B800000C4004080B400AF1E4B1B6903F080031B
:100B9000002B32D01B4BDB69DAB21B4B1A701A4B9D
:100BA0001B78FF2B03D1194B02221A7025E0174B3B
:100BB00001221A70144B1B7803F04003002B04D160
:100BC000114B1A78124B1A7017E00F4B1B7803F079
:100BD0004003002B06D00C4B1B7823F04003DAB205
:100BE0000B4B5A70074B1B6903F04003002B04D0DA
:100BF000044B074A1278D2B25A63BD465DF8047BB3
:100C0000704700BF00C40040AC000020AD000020D1
:100C1000B000002080B483B000AF78603960FEE798
:100C200080B487B000AFF860B9607A60FB6803F108
:100C30000473DA00BB6813449B007B617B697A68AC
:100C40001A601C37BD465DF8047B704780B586B0DE
:100C500000AF78607B68002B03D07B68B3F5004F52
:100C600004D90A4840F2B141FFF7D4FF7B683B61E9
:100C70003B69B3FA83F3FB60FB68DBB2C3F11F038C
:100C80007B617B6918461837BD4680BD582100003E
:100C900080B400AF054BDB6C03F47F031B0CDBB2AD
:100CA0001846BD465DF8047B704700BFB081E00F79
:100CB00080B582B000AF1B4B5B6903F4E063B3F512
:100CC000007F14D0B3F5007F05D8002B15D0B3F505
:100CD000807F0FD01AE0B3F5C06F14D0B3F5E06F8A
:100CE0000ED0B3F5407F11D10F4B7B6015E00F4B59
:100CF0007B6012E00E4B7B600FE00E4B7B600CE0E4
:100D00000D4B7B6009E00D4B7B6006E00C489521A4
:100D1000FFF780FF00237B6000BF7B681846083721
:100D2000BD4680BD00800C4040420F00C0CF6A002D
:100D3000C0D8A700809FD500406F4001003FAB01A5
:100D4000A821000080B582B000AF144800F0C6FAB8
:100D50000346FB70FB78072B0FD0082B11D100F056
:100D60003BFE78600E4B1B6803F4E0339B0B0133B2
:100D70007A68B2FBF3F37B600AE0FFF799FF7860D3
:100D800006E00848C321FFF745FF00237B6000BF52
:100D90007B6818460837BD4680BD00BF06000C00C2
:100DA00000800C40A821000080B584B000AF7860BE
:100DB0000023BB607B68424A934208D0414A934279
:100DC00005D041484FF4A871FFF724FF00E000BFB1
:100DD000786800F083FA0346FB607B68384A9342E8
:100DE00003D0384A934206D00CE0384B9B6A03F09C
:100DF0000303FB600CE0354B9B6A03F00C039B087C
:100E0000FB6005E030484FF4BD71FFF703FF00BF02
:100E1000FB68032B46D801A252F823F06D0E0000A8
:100E20002D0E0000350E00003D0E000000F052FEB9
:100E3000B8603FE000F062FEB8603BE0234B5B68C7
:100E400003F48073002B05D1204B1B6803F0804313
:100E5000002B05D000F09CFD03469B08BB6029E0F9
:100E600000F096FD03465B08BB6023E00023BB60F7
:100E70007A68134B9A4203D07A68124B9A4210D187
:100E8000124B9A6A79680E4B994201D1102300E007
:100E9000142322FA03F3002B03D000F025FEB860E0
:100EA00008E007E008484FF4D871FFF7B3FE0023CD
:100EB000BB6000BFBB6818461037BD4680BD00BF91
:100EC0000200180003001A00A821000000800C4056
:100ED00080B582B000AFFFF7DBFE0346482B23D07E
:100EE0004A2B23D1164B1B699BB203F03F039BB2E5
:100EF0001B02FB80124B9B699BB203F0F0039AB27A
:100F0000FB881343FB800E4BDB6903F0F0031B09E6
:100F10009AB2FB881343FB80FB88B3F5017F01D3B2
:100F2000084B09E0084B07E0074B05E0074840F293
:100F30000221FFF76FFE002318460837BD4680BD2B
:100F4000D0FF0FE000366E010048E801A821000044
:100F500080B483B000AF7860094B5B6D03F0010390
:100F6000002B00D006E000BF054B1A6D7B681340D4
:100F7000002BF9D10C37BD465DF8047B704700BFEC
:100F800000800C4080B582B000AF104800F0A6F998
:100F90000346FB70FB78032B07D0082B09D0022BEC
:100FA0000BD100F0ABFD78600AE000F093FD7860B3
:100FB00006E000F011FD786002E000237B6000BFD6
:100FC0007B6818460837BD4680BD00BF0723200058
:100FD00090B587B000AF78600B46FB7000233B6193
:100FE0007B681B0A03F00F03013B092B40D801A2C9
:100FF00052F823F04B100000511000001D100000AB
:101000007110000071100000571000006110000006
:1010100071100000711000006B100000214B7B610B
:10102000214800F053F80446FFF752FF03469C4264
:101030000AD91E481E210122FFF7F2FD1C48082193
:101040000122FFF7EDFD19E018E01A4B7B6115E076
:10105000194B7B6112E0194B7B6101233B610DE071
:10106000174B7B6110233B6108E0164B7B6105E069
:10107000154840F2AE51FFF7CDFD10E07B681B0B29
:1010800003F01F03FB603B69002B02D03869FFF7B8
:101090005FFFFB787869F9681A46FFF7C1FD1C37D6
:1010A000BD4690BD40800C405000020000800C40C6
:1010B00004800C4008800C4044800C4058800C4058
:1010C00060800C4078800C40A821000090B585B06D
:1010D00000AF78607B6803F47813B3F5A01F00F0CD
:1010E000C080B3F5A01F1AD8B3F5402F00F0D4800C
:1010F000B3F5402F08D8B3F5003F51D0B3F5802F9A
:1011000038D0002B28D0D3E0B3F5801F51D0B3F5F1
:10111000901F5CD0B3F5602F00F0C280C8E0B3F53B
:10112000001F00F0C180B3F5001F0BD8B3F5C01F3E
:101130003AD0B3F5D01F00F08F80B3F5B01F00F0A8
:101140009D80B5E0B3F5181F62D0B3F5201F76D0AF
:10115000B3F5101F49D0ABE000F03EFCF8605B4BEC
:101160001B6803F4E0339B0B0133FA68B2FBF3F323
:10117000FB60A5E000F030FCF860544B1B6803F402
:10118000E0339B0B0133FA68B2FBF3F3FB604F4B88
:101190009B6803F00F03FA6822FA03F3FB608FE009
:1011A00000F0F6FBF8608BE04948FFF7FDFDF860C2
:1011B00086E04748FFF7F8FDF860444B9B6E03F06C
:1011C000F0031B09FA6822FA03F3FB6078E0404859
:1011D000FFF7EAFDF8603D4B9B6E03F470631B0A5A
:1011E000FA6822FA03F3FB606AE03948FFF7DCFD96
:1011F000F860364B9B6E03F440531C0B1020FFF736
:1012000025FD03462344FA6822FA03F3FB6057E006
:101210002F48FFF7C9FDF8602C4B9B6E03F4405339
:101220001B0BFA6822FA03F3FB60284BDB6F03F019
:1012300007030133FA68B2FBF3F3FB6040E0244894
:10124000FFF7B2FDF860214B9B6E03F00303FA68D1
:1012500022FA03F3FB6033E01E48FFF7A5FDF860B8
:101260002EE01C48FFF7A0FDF860184B1B6F03F041
:101270000303FA6822FA03F3FB6021E01548FFF745
:1012800093FDF860114B1B6F03F030031B09FA68E4
:1012900022FA03F3FB6013E0FFF754FDF8600FE060
:1012A000FFF706FDF8600BE0FFF76CFEF86007E063
:1012B000094840F28461FFF7ADFC0023FB6000BFEA
:1012C000FB6818461437BD4690BD00BF00800C4037
:1012D0000200180003001A00A821000080B584B0A5
:1012E00000AF78600123FB737B6803F00F03BB60E2
:1012F000BB68013B062B00F2958001A252F823F057
:101300001D130000531300008F130000251400006C
:1013100025140000CB130000F1130000484BDB6ADA
:1013200003F47053B3F5805F09D0B3F5005F03D0C9
:10133000B3F5006F06D008E00223FB7308E0032337
:10134000FB7305E00423FB7302E00523FB7300BF7E
:1013500070E03B4B9B6A03F00303022B06D0032B88
:1013600007D0012B08D10323FB730FE00223FB738B
:101370000CE00623FB7309E0314B9B6A03F48033D6
:10138000002B02D00923FB7300E000BF52E02C4B7E
:101390009B6A03F00C03082B06D00C2B07D0042B00
:1013A00008D10323FB730FE00223FB730CE0062339
:1013B000FB7309E0224B9B6A03F48013002B02D0DD
:1013C0000923FB7300E000BF34E00723FB731C4BD1
:1013D0001B6803F08053002B03D0B3F1805F03D070
:1013E00028E00723FB7302E00823FB7300BF21E022
:1013F000134BDB6A03F46033B3F5803F08D0B3F5D9
:10140000003F08D0B3F5004F08D10823FB7308E074
:101410000223FB7305E00323FB7302E00123FB734C
:1014200000BF07E0074840F63511FFF7F3FB002344
:10143000FB7300BFFB7B18461037BD4680BD00BF65
:1014400000800C40A821000080B485B000AFF86097
:10145000B9607A60FB681A68BB68DB431A407B6836
:101460001A43FB681A601437BD465DF8047B704769
:1014700080B582B000AF03463960FB71FB79002B69
:101480001FD0FB79012B19D0FB79022B13D0FB79EC
:10149000032B0DD0FB79042B07D0FB79052B02D150
:1014A00041F6FF730FE000230DE04FF6FF730AE0F3
:1014B0004FF6FF7307E04FF6FF7304E04FF6FF733C
:1014C00001E04FF6FF733A68134103F00103002B6C
:1014D00004D10B484FF42F71FFF79CFB0948FA79B0
:1014E0003B68012101FA03F319461346DB0013445C
:1014F0009B000344103359600837BD4680BD00BFD0
:10150000F82100000060004080B582B000AF0346C3
:101510003960FB71FB79002B1FD0FB79012B19D0AF
:10152000FB79022B13D0FB79032B0DD0FB79042B15
:1015300007D0FB79052B02D141F6FF730FE00023A2
:101540000DE04FF6FF730AE04FF6FF7307E04FF62A
:10155000FF7304E04FF6FF7301E04FF6FF733A6844
:10156000134103F00103002B04D10B4840F2EB219F
:10157000FFF750FB0948FA793B68012101FA03F3B0
:1015800019461346DB0013449B00034410331960D3
:101590000837BD4680BD00BFF82100000060004054
:1015A00080B584B000AFB9607B600346FB7313461F
:1015B000BB73FB7B002B1FD0FB7B012B19D0FB7B6C
:1015C000022B13D0FB7B032B0DD0FB7B042B07D00E
:1015D000FB7B052B02D141F6FF730FE000230DE0EA
:1015E0004FF6FF730AE04FF6FF7307E04FF6FF7305
:1015F00004E04FF6FF7301E04FF6FF73BA68134142
:1016000003F00103002B03D13148E721FFF702FB70
:10161000BB7B002B0DD07B68002B05D0FB7B1846D5
:10162000B968FFF771FF04E0FB7B1846B968FFF764
:101630001FFFBB68072B18D8FA7B1346DB00134447
:101640009B00043303F1804303F5C043BA68920062
:101650000F2101FA02F21146B87BBA68920000FA33
:1016600002F21846FFF7F0FE1DE0FA7B1346DB009E
:1016700013449B00083303F1804303F5C043BA6869
:1016800002F18042083A92000F2101FA02F211465B
:10169000B87BBA6802F18042083A920000FA02F27E
:1016A0001846FFF7D1FEBB7B002B0DD17B68002BCA
:1016B00005D0FB7B1846B968FFF726FF04E0FB7BEB
:1016C0001846B968FFF7D4FE1037BD4680BD00BF8D
:1016D0004822000080B584B000AF78607B68002BA2
:1016E00003D11A483E21FFF795FA194B5B69DBB22B
:1016F00003F00F03DBB29B00FB73154B1B6903F078
:10170000C0039B09DAB2FB7B1343FB737B68FA7B54
:101710009A700F4B1B69DBB203F03F03DAB27B68B0
:101720005A700B4B9B69DBB223F00F03FB73084B22
:10173000DB6903F0F0031B09DAB2FB7B1343FB7395
:101740007B68FA7B1A701037BD4680BD9822000076
:10175000D0FF0FE080B582B000AF786039607A6862
:101760003B4B9A420FD07A683A4B9A420BD07A6838
:10177000394B9A4207D07A68384B9A4203D038489E
:101780004E21FFF747FA3B681B7883F00103DBB279
:10179000002B02D07B6802225A607B6800225A62CA
:1017A0003B689B781A063B68DB781B041A433B684E
:1017B0009B799B021A433B68DB791B021A433B6807
:1017C0001B7A1A433B685B78002B01D0402300E072
:1017D00000231A433B685B7A002B01D0802300E092
:1017E00000231A433B689B7A002B01D0202300E0A2
:1017F00000231A433B68DB7A002B01D0102300E062
:1018000000231A433B681B79002B02D04FF400538E
:1018100000E000231A433B685B79002B02D04FF0B5
:10182000805300E000231A433B681B7B002B01D050
:10183000082300E000231A437B681A603B681B788A
:10184000002B02D07B6801225A600837BD4680BD5C
:10185000000001400004014000080140000C01406C
:101860003823000080B584B000AFF860B9607A60BA
:10187000FA682F4B9A420FD0FA682E4B9A420BD03F
:10188000FA682D4B9A4207D0FA682C4B9A4203D043
:101890002B488621FFF7BEF9BB68022B03D92848E5
:1018A0008721FFF7B7F97B681B789A067B685B781E
:1018B0001B061A437B689B781B041A437B68DB7802
:1018C0001B031A437B681B799B021A437B685B7975
:1018D0001B021A437B689B791A437B68DB79002BD8
:1018E00002D04FF4001300E000231A437B681B7AF8
:1018F000002B02D04FF4801300E000231A437B68D2
:101900005B7A002B01D0102300E000231A437B6890
:101910009B7A002B01D0042300E000231A43F968CE
:10192000BB6803331B010B441A601037BD4680BDF2
:10193000000001400004014000080140000C01408B
:1019400038230000064880470649074A074B9A4259
:10195000BEBF51F8040B42F8040BF8E7FEF7E8FBB2
:10196000C91A0000C02300000000002074000020FD
:10197000FEE700BF80B400AF044BDB6C1B0EDBB294
:101980001846BD465DF8047B704700BFB081E00F8C
:1019900080B582B000AF00F01FF878600C4B1B6878
:1019A00003F4E0339B0B01337A68B2FBF3F37B6003
:1019B000074B5B6803F00F037A6822FA03F37B603E
:1019C000044B7A681A607B6818460837BD4680BDAC
:1019D00000800C40B400002080B582B000AF2F4BD7
:1019E000DB6A03F47053B3F5805F0AD0B3F5005F90
:1019F00003D0B3F5006F08D00BE0294B1B687B6068
:101A000047E04FF400437B6043E0264B1B687B605C
:101A10003FE0224BDB6803F4E063B3F5007F1BD0AB
:101A2000B3F5007F05D8002B24D0B3F5807F16D006
:101A30002BE0B3F5806F09D0B3F5A06F03D0B3F5F9
:101A4000407F06D021E0184B7B6021E0174B7B6084
:101A50001EE0174B7B601BE0164B7B6018E0FFF726
:101A600089FF0346122B02D9134B7B6010E0134B06
:101A70007B600DE0FFF77EFF0346122B02D9104B6F
:101A80007B6005E00F4B7B6002E000237B6000BFC2
:101A900000BF7B6818460837BD4680BD00800C40FB
:101AA0000400002000000020003FAB01406F400117
:101AB000809FD500C0D8A70040B56400C0CF6A00A1
:101AC000804F120040420F0080B400AFBD465DF869
:101AD000047B704780B400AF4FF400431846BD4606
:101AE0005DF8047B704700BF80B400AF4FF47A7399
:101AF0001846BD465DF8047B704700BF80B400AF58
:101B0000034B1B681846BD465DF8047B704700BF59
:101B10000400002080B582B000AF03463960FB713D
:101B2000FB79002B1FD0FB79012B19D0FB79022BFD
:101B300013D0FB79032B0DD0FB79042B07D0FB7955
:101B4000052B02D141F6FF730FE000230DE04FF6A5
:101B5000FF730AE04FF6FF7307E04FF6FF7304E0F0
:101B60004FF6FF7301E04FF6FF733A68134103F03D
:101B70000103002B04D10B484FF42F71FFF74AF8F3
:101B80000948FA793B68012101FA03F31946134623
:101B9000DB0013449B000344103359600837BD46F3
:101BA00080BD00BF4C2300000060004080B582B0C3
:101BB00000AF03463960FB71FB79002B1FD0FB7926
:101BC000012B19D0FB79022B13D0FB79032B0DD0FD
:101BD000FB79042B07D0FB79052B02D141F6FF736B
:101BE0000FE000230DE04FF6FF730AE04FF6FF739E
:101BF00007E04FF6FF7304E04FF6FF7301E04FF686
:101C0000FF733A68134103F00103002B04D10B4822
:101C100040F2EB21FEF7FEFF0948FA793B6801210B
:101C200001FA03F319461346DB0013449B000344F7
:101C3000103319600837BD4680BD00BF4C2300003B
:101C40000060004080B582B000AF12480121FFF76C
:101C5000BFF911480121FFF7BBF900237B6011E0B8
:101C60000E4B7A6813F832200C497B68DB000B447A
:101C70005B681046194604220023FFF791FC7B683D
:101C800001337B607B68012BEADD002318460837AF
:101C9000BD4680BD4081040000D204009C230000AA
:101CA00080B582B000AF78607B68002B11DB7B6869
:101CB000012B0EDC0A4B7A6813F8322008497B6846
:101CC000DB000B445B6810461946FFF723FF002337
:101CD00001E04FF0FF3318460837BD4680BD00BF16
:101CE0009C23000080B582B000AF78607B68002B39
:101CF00011DB7B68012B0EDC0A4B7A6813F832206B
:101D000008497B68DB000B445B6810461946FFF707
:101D10004DFF002301E04FF0FF3318460837BD4662
:101D200080BD00BF9C23000008B5074B044613B1DB
:101D30000021AFF30080054B1868836A03B1984710
:101D4000204600F03DF800BF00000000B023000076
:101D500070B50E4B0E4D0024ED1AAD101E46AC4270
:101D600004D056F8242090470134F8E700F02AF810
:101D7000084D094B0024ED1AAD101E46AC4204D0AC
:101D800056F8242090470134F8E770BD6800002021
:101D9000680000206C0000206800002010B50023BF
:101DA000934203D0CC5CC4540133F9E710BD024424
:101DB0000346934202D003F8011BFAE77047000084
:101DC000FEE700BFF8B500BFF8BC08BC9E467047F0
:101DD000F8B500BFF8BC08BC9E4670472F41707034
:101DE0006C69636174696F6E732F53696D706C6990
:101DF0006369747953747564696F5F76332F6465B2
:101E000076656C6F7065722F73646B732F65666D8A
:101E100033322F76322F656D6C69622F696E632FB6
:101E2000656D5F6770696F2E68000000CA0800006A
:101E3000E6080000020900001E0900003A0900003F
:101E400055090000700900008A090000A30900007C
:101E5000BB090000D3090000E9090000FE090000E9
:101E6000120A0000250A0000360A0000460A000097
:101E7000540A0000610A00006C0A0000760A0000A3
:101E80007E0A0000840A0000880A00008B0A000015
:101E90008C0A00008B0A0000880A0000840A0000F7
:101EA0007E0A0000760A00006C0A0000610A000049
:101EB000540A0000460A0000360A0000250A000005
:101EC000120A0000FE090000E9090000D309000021
:101ED000BB090000A30900008A0900007009000086
:101EE000550900003A0900001E090000020900001F
:101EF000E6080000CA080000AE08000092080000D2
:101F0000760800005A0800003F080000240800007E
:101F10000A080000F1070000D9070000C10700000F
:101F2000AB07000096070000820700006F07000063
:101F30005E0700004E070000400700003307000066
:101F4000280700001E070000160700001007000009
:101F50000C0700000907000008070000090700003F
:101F60000C07000010070000160700001E07000005
:101F70002807000033070000400700004E0700005C
:101F80005E0700006F070000820700009607000050
:101F9000AB070000C1070000D9070000F1070000EF
:101FA0000A080000240800003F0800005A0800004A
:101FB0007608000092080000AE0800008C0A0000BD
:101FC0008B0A0000880A0000840A00007E0A0000D4
:101FD000760A00006C0A0000610A0000540A000042
:101FE000460A0000360A0000250A0000120A000016
:101FF000FE090000E9090000D3090000BB09000048
:10200000A30900008A0900007009000055090000BA
:102010003A0900001E09000002090000E60800005D
:10202000CA080000AE080000920800007608000010
:102030005A0800003F080000240800000A080000B9
:10204000F1070000D9070000C1070000AB0700003E
:1020500096070000820700006F0700005E0700007F
:102060004E0700004007000033070000280700006B
:102070001E07000016070000100700000C070000F4
:102080000907000008070000090700000C0700000E
:1020900010070000160700001E07000028070000B8
:1020A00033070000400700004E0700005E070000F5
:1020B0006F0700008207000096070000AB070000D2
:1020C000C1070000D9070000F10700000A0800005E
:1020D000240800003F0800005A08000076080000AD
:1020E00092080000AE080000CA080000E6080000E0
:1020F000020900001E0900003A090000550900000D
:10210000700900008A090000A3090000BB09000053
:10211000D3090000E9090000FE090000120A0000CE
:10212000250A0000360A0000460A0000540A000092
:10213000610A00006C0A0000760A00007E0A0000B6
:10214000840A0000880A00008B0A000000030000D7
:1021500003020300000000002F4170706C6963618E
:1021600074696F6E732F53696D706C6963697479EC
:1021700053747564696F5F76332F646576656C6F31
:102180007065722F73646B732F65666D33322F76B3
:10219000322F656D6C69622F696E632F656D5F63A9
:1021A0006D752E68000000002F4170706C696361CE
:1021B00074696F6E732F53696D706C69636974799C
:1021C00053747564696F5F76332F646576656C6FE1
:1021D0007065722F73646B732F65666D33322F7663
:1021E000322F656D6C69622F7372632F656D5F634B
:1021F0006D752E63000000002F4170706C69636183
:1022000074696F6E732F53696D706C69636974794B
:1022100053747564696F5F76332F646576656C6F90
:102220007065722F73646B732F65666D33322F7612
:10223000322F656D6C69622F696E632F656D5F6704
:1022400070696F2E680000002F4170706C696361C7
:1022500074696F6E732F53696D706C6963697479FB
:1022600053747564696F5F76332F646576656C6F40
:102270007065722F73646B732F65666D33322F76C2
:10228000322F656D6C69622F7372632F656D5F67A6
:1022900070696F2E630000002F4170706C6963617C
:1022A00074696F6E732F53696D706C6963697479AB
:1022B00053747564696F5F76332F646576656C6FF0
:1022C0007065722F73646B732F65666D33322F7672
:1022D000322F656D6C69622F7372632F656D5F734A
:1022E000797374656D2E63002F4170706C69636142
:1022F00074696F6E732F53696D706C69636974795B
:1023000053747564696F5F76332F646576656C6F9F
:102310007065722F73646B732F65666D33322F7621
:10232000322F656D6C69622F696E632F656D5F7406
:10233000696D65722E6800002E2E2F656D6C6962C6
:102340002F656D5F74696D65722E63002F4170702B
:102350006C69636174696F6E732F53696D706C691A
:102360006369747953747564696F5F76332F64653C
:1023700076656C6F7065722F73646B732F65666D15
:1023800033322F76322F656D6C69622F696E632F41
:10239000656D5F6770696F2E6800000004000000C3
:1023A00002000000040000000300000043000000E1
:0823B0000800002000000000FD
:0823B80078DDFF7F0100000049
:1023C000006CDC0200800000000000000000000043
:1023D00000000000000000000000000000000000FD
:1023E0000000000000000000AC230000000000001E
:1023F00000000000000000000000000000000000DD
:1024000000000000000000000000000000000000CC
:1024100000000000000000000000000000000000BC
:10242000000000000000000001010000DD000000CD
:0424300000000000A8
:04000003000019459B
:00000001FF
