:1000000000000220590E0000850E0000850E000041
:10001000850E0000850E0000850E0000850E000094
:10002000850E0000850E0000850E0000850E000084
:10003000850E0000850E0000850E00007D02000088
:10004000850E0000850E0000850E0000850E000064
:10005000850E0000850E0000850E0000850E000054
:10006000850E0000850E0000850E0000850E000044
:10007000850E0000850E0000850E0000850E000034
:10008000850E0000850E0000850E0000850E000024
:10009000850E0000850E0000850E0000850E000014
:1000A000850E0000850E0000850E0000850E000004
:1000B000850E0000850E0000850E0000850E0000F4
:1000C000850E0000850E0000850E0000850E0000E4
:1000D000850E0000850E0000850E000010B5054C51
:1000E000237833B9044B13B10448AFF300800123E4
:1000F000237010BD7400002000000000E81500000F
:1001000008B5064B1BB106480649AFF30080064808
:10011000036813B1054B03B1984708BD0000000008
:10012000E8150000780000207000002000000000AA
:10013000154B002B08BF134B9D46A3F5803A0021B9
:100140008B460F461348144A121A01F03BF90F4B25
:10015000002B00D098470E4B002B00D09847002072
:10016000002104000D000D48002802D00C48AFF318
:10017000008001F001F92000290000F0A3F801F04F
:10018000E7F800BF000008000000022000000000A7
:100190000000000074000020980000200000000013
:1001A0000000000080B483B000AF03463960FB71EB
:1001B00097F90730002B0BDA0D49FB7903F00F0399
:1001C000043B3A68D2B25201D2B20B441A7609E02B
:1001D000084997F907303A68D2B25201D2B20B44BB
:1001E00083F800230C37BD465DF8047B704700BFE1
:1001F00000ED00E000E100E080B582B000AF786083
:100200007B68013BB3F1807F01D301230FE00A4BF0
:100210007A68013A5A604FF0FF300721FFF7C2FFBA
:10022000054B00229A60044B07221A6000231846EF
:100230000837BD4680BD00BF10E000E080B582B049
:1002400000AF0C4B1B687B603B46184600F0C4FDBA
:100250007B681B0E0F2B0AD93B78032B07D1064B6B
:10026000054A126822F0500242F010021A60083764
:10027000BD4680BDFC81E00FC0800C4080B400AF63
:10028000044B1B685A1C034B1A60BD465DF8047B87
:10029000704700BF9000002080B485B000AF786048
:1002A000074B1B68FB6000BF054B1A68FB68D21A3E
:1002B0007B689A42F8D31437BD465DF8047B7047DB
:1002C0009000002080B500AFFFF7B8FF01F02CF8D8
:1002D0000F4800F07DFA02460E4BA3FB02139B0968
:1002E0001846FFF789FF0346002B00D0FEE700F019
:1002F00033FF002000F05EFF002000F07DFF0120B2
:1003000000F07AFF4FF47A70FFF7C6FFF4E700BF02
:1003100050000200D34D621080B483B000AF78600B
:100320003960FEE780B487B000AFF860B9607A60EA
:10033000FB6803F10473DA00BB6813449B007B6124
:100340007B697A681A601C37BD465DF8047B70478C
:1003500080B586B000AF78607B68002B03D07B68E7
:10036000B3F5004F04D90A4840F2B141FFF7D4FF7A
:100370007B683B613B69B3FA83F3FB60FB68DBB2EC
:10038000C3F11F037B617B6918461837BD4680BDEA
:10039000F013000080B400AF054BDB6C03F47F0367
:1003A0001B0CDBB21846BD465DF8047B704700BFEE
:1003B000B081E00F80B582B000AF1B4B5B6903F4E6
:1003C000E063B3F5007F14D0B3F5007F05D8002BB0
:1003D00015D0B3F5807F0FD01AE0B3F5C06F14D0FD
:1003E000B3F5E06F0ED0B3F5407F11D10F4B7B60BA
:1003F00015E00F4B7B6012E00E4B7B600FE00E4B65
:100400007B600CE00D4B7B6009E00D4B7B6006E0F0
:100410000C489521FFF780FF00237B6000BF7B68BD
:1004200018460837BD4680BD00800C4040420F0092
:10043000C0CF6A00C0D8A700809FD500406F4001A0
:10044000003FAB014014000080B582B000AF1448FB
:1004500000F0C6FA0346FB70FB78072B0FD0082B81
:1004600011D100F043FD78600E4B1B6803F4E033BC
:100470009B0B01337A68B2FBF3F37B600AE0FFF772
:1004800099FF786006E00848C321FFF745FF002385
:100490007B6000BF7B6818460837BD4680BD00BF43
:1004A00006000C0000800C404014000080B584B0B1
:1004B00000AF78600023BB607B68424A934208D05B
:1004C000414A934205D041484FF4A871FFF724FFF9
:1004D00000E000BF786800F083FA0346FB607B68A9
:1004E000384A934203D0384A934206D00CE0384B46
:1004F0009B6A03F00303FB600CE0354B9B6A03F03F
:100500000C039B08FB6005E030484FF4BD71FFF71A
:1005100003FF00BFFB68032B46D801A252F823F06B
:10052000710500003105000039050000410500009B
:1005300000F05AFDB8603FE000F06AFDB8603BE0B3
:10054000234B5B6803F48073002B05D1204B1B68A1
:1005500003F08043002B05D000F0A4FC03469B0869
:10056000BB6029E000F09EFC03465B08BB6023E013
:100570000023BB607A68134B9A4203D07A68124B0F
:100580009A4210D1124B9A6A79680E4B994201D166
:10059000102300E0142322FA03F3002B03D000F011
:1005A0002DFDB86008E007E008484FF4D871FFF768
:1005B000B3FE0023BB6000BFBB6818461037BD46C2
:1005C00080BD00BF0200180003001A0040140000A4
:1005D00000800C4080B582B000AFFFF7DBFE034621
:1005E000482B23D04A2B23D1164B1B699BB203F017
:1005F0003F039BB21B02FB80124B9B699BB203F033
:10060000F0039AB2FB881343FB800E4BDB6903F0C7
:10061000F0031B099AB2FB881343FB80FB88B3F5F8
:10062000017F01D3084B09E0084B07E0074B05E0C9
:10063000074840F20221FFF76FFE002318460837F3
:10064000BD4680BDD0FF0FE000366E010048E801D6
:100650004014000080B483B000AF7860094B5B6D3C
:1006600003F00103002B00D006E000BF054B1A6D1C
:100670007B681340002BF9D10C37BD465DF8047B35
:10068000704700BF00800C4080B582B000AF1048BA
:1006900000F0A6F90346FB70FB78032B07D0082B6C
:1006A00009D0022B0BD100F0B3FC78600AE000F017
:1006B0009BFC786006E000F019FC786002E0002303
:1006C0007B6000BF7B6818460837BD4680BD00BF11
:1006D0000723200090B587B000AF78600B46FB7011
:1006E00000233B617B681B0A03F00F03013B092BCE
:1006F00040D801A252F823F04F0700005507000030
:100700002107000075070000750700005B07000067
:100710006507000075070000750700006F070000FF
:10072000214B7B61214800F053F80446FFF752FF4C
:1007300003469C420AD91E481E210122FFF7F2FD02
:100740001C4808210122FFF7EDFD19E018E01A4BC3
:100750007B6115E0194B7B6112E0194B7B61012332
:100760003B610DE0174B7B6110233B6108E0164BAA
:100770007B6105E0154840F2AE51FFF7CDFD10E07A
:100780007B681B0B03F01F03FB603B69002B02D04F
:100790003869FFF75FFFFB787869F9681A46FFF759
:1007A000C1FD1C37BD4690BD40800C40500002008A
:1007B00000800C4004800C4008800C4044800C40B9
:1007C00058800C4060800C4078800C404014000041
:1007D00090B585B000AF78607B6803F47813B3F50B
:1007E000A01F00F0C080B3F5A01F1AD8B3F5402FAA
:1007F00000F0D480B3F5402F08D8B3F5003F51D0B6
:10080000B3F5802F38D0002B28D0D3E0B3F5801F6C
:1008100051D0B3F5901F5CD0B3F5602F00F0C280CB
:10082000C8E0B3F5001F00F0C180B3F5001F0BD87E
:10083000B3F5C01F3AD0B3F5D01F00F08F80B3F5E9
:10084000B01F00F09D80B5E0B3F5181F62D0B3F57E
:10085000201F76D0B3F5101F49D0ABE000F046FB67
:10086000F8605B4B1B6803F4E0339B0B0133FA68C1
:10087000B2FBF3F3FB60A5E000F038FBF860544BEB
:100880001B6803F4E0339B0B0133FA68B2FBF3F30C
:10089000FB604F4B9B6803F00F03FA6822FA03F3E7
:1008A000FB608FE000F0FEFAF8608BE04948FFF74C
:1008B000FDFDF86086E04748FFF7F8FDF860444B1F
:1008C0009B6E03F0F0031B09FA6822FA03F3FB6046
:1008D00078E04048FFF7EAFDF8603D4B9B6E03F47B
:1008E00070631B0AFA6822FA03F3FB606AE0394876
:1008F000FFF7DCFDF860364B9B6E03F440531C0B96
:100900001020FFF725FD03462344FA6822FA03F37B
:10091000FB6057E02F48FFF7C9FDF8602C4B9B6E3A
:1009200003F440531B0BFA6822FA03F3FB60284BD5
:10093000DB6F03F007030133FA68B2FBF3F3FB60EC
:1009400040E02448FFF7B2FDF860214B9B6E03F0B6
:100950000303FA6822FA03F3FB6033E01E48FFF753
:10096000A5FDF8602EE01C48FFF7A0FDF860184BCD
:100970001B6F03F00303FA6822FA03F3FB6021E024
:100980001548FFF793FDF860114B1B6F03F0300320
:100990001B09FA6822FA03F3FB6013E0FFF754FD2A
:1009A000F8600FE0FFF706FDF8600BE0FFF76CFE64
:1009B000F86007E0094840F28461FFF7ADFC0023CE
:1009C000FB6000BFFB6818461437BD4690BD00BFF2
:1009D00000800C400200180003001A0040140000C0
:1009E00080B584B000AF78600123FB737B6803F0AF
:1009F0000F03BB60BB68013B062B00F2958001A290
:100A000052F823F0210A0000570A0000930A000060
:100A1000290B0000290B0000CF0A0000F50A000096
:100A2000484BDB6A03F47053B3F5805F09D0B3F52C
:100A3000005F03D0B3F5006F06D008E00223FB731C
:100A400008E00323FB7305E00423FB7302E00523A6
:100A5000FB7300BF70E03B4B9B6A03F00303022B68
:100A600006D0032B07D0012B08D10323FB730FE023
:100A70000223FB730CE00623FB7309E0314B9B6AF6
:100A800003F48033002B02D00923FB7300E000BF86
:100A900052E02C4B9B6A03F00C03082B06D00C2B66
:100AA00007D0042B08D10323FB730FE00223FB7351
:100AB0000CE00623FB7309E0224B9B6A03F48013CE
:100AC000002B02D00923FB7300E000BF34E00723B2
:100AD000FB731C4B1B6803F08053002B03D0B3F156
:100AE000805F03D028E00723FB7302E00823FB7339
:100AF00000BF21E0134BDB6A03F46033B3F5803FA2
:100B000008D0B3F5003F08D0B3F5004F08D1082353
:100B1000FB7308E00223FB7305E00323FB7302E091
:100B20000123FB7300BF07E0074840F63511FFF7CC
:100B3000F3FB0023FB7300BFFB7B18461037BD4659
:100B400080BD00BF00800C404014000080B485B020
:100B500000AFF860B9607A60FB681A68BB68DB4375
:100B60001A407B681A43FB681A601437BD465DF86B
:100B7000047B704780B582B000AF03463960FB71DB
:100B8000FB79002B1FD0FB79012B19D0FB79022BAD
:100B900013D0FB79032B0DD0FB79042B07D0FB7905
:100BA000052B02D141F6FF730FE000230DE04FF655
:100BB000FF730AE04FF6FF7307E04FF6FF7304E0A0
:100BC0004FF6FF7301E04FF6FF733A68134103F0ED
:100BD0000103002B04D10B484FF42F71FFF79CFB4E
:100BE0000948FA793B68012101FA03F319461346D3
:100BF000DB0013449B000344103359600837BD46A3
:100C000080BD00BF901400000060004080B582B03D
:100C100000AF03463960FB71FB79002B1FD0FB79D5
:100C2000012B19D0FB79022B13D0FB79032B0DD0AC
:100C3000FB79042B07D0FB79052B02D141F6FF731A
:100C40000FE000230DE04FF6FF730AE04FF6FF734D
:100C500007E04FF6FF7304E04FF6FF7301E04FF635
:100C6000FF733A68134103F00103002B04D10B48D2
:100C700040F2EB21FFF750FB0948FA793B6801216C
:100C800001FA03F319461346DB0013449B000344A7
:100C9000103319600837BD4680BD00BF90140000B6
:100CA0000060004080B584B000AFB9607B6003464F
:100CB000FB731346BB73FB7B002B1FD0FB7B012B0D
:100CC00019D0FB7B022B13D0FB7B032B0DD0FB7BBE
:100CD000042B07D0FB7B052B02D141F6FF730FE0FD
:100CE00000230DE04FF6FF730AE04FF6FF7307E0B5
:100CF0004FF6FF7304E04FF6FF7301E04FF6FF730A
:100D0000BA68134103F00103002B03D13148E721F6
:100D1000FFF702FBBB7B002B0DD07B68002B05D0BF
:100D2000FB7B1846B968FFF771FF04E0FB7B1846B0
:100D3000B968FFF71FFFBB68072B18D8FA7B13466B
:100D4000DB0013449B00043303F1804303F5C043ED
:100D5000BA6892000F2101FA02F21146B87BBA6814
:100D6000920000FA02F21846FFF7F0FE1DE0FA7B4F
:100D70001346DB0013449B00083303F1804303F563
:100D8000C043BA6802F18042083A92000F2101FA8A
:100D900002F21146B87BBA6802F18042083A92002A
:100DA00000FA02F21846FFF7D1FEBB7B002B0DD1F3
:100DB0007B68002B05D0FB7B1846B968FFF726FF40
:100DC00004E0FB7B1846B968FFF7D4FE1037BD4638
:100DD00080BD00BFE014000080B584B000AF786033
:100DE0007B68002B03D11A483E21FFF795FA194B77
:100DF0005B69DBB203F00F03DBB29B00FB73154BA7
:100E00001B6903F0C0039B09DAB2FB7B1343FB733E
:100E10007B68FA7B9A700F4B1B69DBB203F03F03D0
:100E2000DAB27B685A700B4B9B69DBB223F00F037D
:100E3000FB73084BDB6903F0F0031B09DAB2FB7BA1
:100E40001343FB737B68FA7B1A701037BD4680BD75
:100E500030150000D0FF0FE0064880470649074ADA
:100E6000074B9A42BEBF51F8040B42F8040BF8E757
:100E7000FFF75EF9DD0F0000F41500000000002010
:100E800074000020FEE700BF80B400AF044BDB6CB1
:100E90001B0EDBB21846BD465DF8047B704700BFF1
:100EA000B081E00F80B582B000AF00F01FF878602D
:100EB0000C4B1B6803F4E0339B0B01337A68B2FBE5
:100EC000F3F37B60074B5B6803F00F037A6822FA49
:100ED00003F37B60044B7A681A607B681846083716
:100EE000BD4680BD00800C409400002080B582B0DB
:100EF00000AF2F4BDB6A03F47053B3F5805F0AD069
:100F0000B3F5005F03D0B3F5006F08D00BE0294BB9
:100F10001B687B6047E04FF400437B6043E0264B57
:100F20001B687B603FE0224BDB6803F4E063B3F5B2
:100F3000007F1BD0B3F5007F05D8002B24D0B3F57C
:100F4000807F16D02BE0B3F5806F09D0B3F5A06F8A
:100F500003D0B3F5407F06D021E0184B7B6021E041
:100F6000174B7B601EE0174B7B601BE0164B7B60D2
:100F700018E0FFF789FF0346122B02D9134B7B6061
:100F800010E0134B7B600DE0FFF77EFF0346122B52
:100F900002D9104B7B6005E00F4B7B6002E0002321
:100FA0007B6000BF00BF7B6818460837BD4680BD28
:100FB00000800C400400002000000020003FAB0136
:100FC000406F4001809FD500C0D8A70040B56400A5
:100FD000C0CF6A00804F120040420F0080B400AFC3
:100FE000BD465DF8047B704780B400AF4FF400430A
:100FF0001846BD465DF8047B704700BF80B400AF63
:101000004FF47A731846BD465DF8047B704700BF05
:1010100080B400AF034B1B681846BD465DF8047BE7
:10102000704700BF0400002080B582B000AF0346C7
:101030003960FB71FB79002B1FD0FB79012B19D094
:10104000FB79022B13D0FB79032B0DD0FB79042BFA
:1010500007D0FB79052B02D141F6FF730FE0002387
:101060000DE04FF6FF730AE04FF6FF7307E04FF60F
:10107000FF7304E04FF6FF7301E04FF6FF733A6829
:10108000134103F00103002B04D10B4840F2EB2184
:10109000FFF742F90948FA793B68012101FA03F3A5
:1010A00019461346DB0013449B00034410331960B8
:1010B0000837BD4680BD00BF8015000000600040BD
:1010C00080B582B000AF03463960FB71FB79002B1D
:1010D0001FD0FB79012B19D0FB79022B13D0FB79A0
:1010E000032B0DD0FB79042B07D0FB79052B02D104
:1010F00041F6FF730FE000230DE04FF6FF730AE0A7
:101100004FF6FF7307E04FF6FF7304E04FF6FF73EF
:1011100001E04FF6FF733A68134103F00103002B1F
:1011200004D10B4840F20531FFF7F6F80948FA7987
:101130003B68012101FA03F319461346DB0013440F
:101140009B000344183319600837BD4680BD00BFBB
:10115000801500000060004080B582B000AF1248EA
:101160000121FFF7B7FA11480121FFF7B3FA002375
:101170007B6011E00E4B7A6813F832200C497B68D3
:10118000DB000B445B681046194604220023FFF77E
:1011900089FD7B6801337B607B68012BEADD0023DE
:1011A00018460837BD4680BD4081040000D20400C7
:1011B000D015000080B582B000AF78607B68002B4E
:1011C00011DB7B68012B0EDC0A4B7A6813F83220A6
:1011D00008497B68DB000B445B6810461946FFF743
:1011E00023FF002301E04FF0FF3318460837BD46C8
:1011F00080BD00BFD015000080B582B000AF786020
:101200007B68002B11DB7B68012B0EDC0A4B7A68B4
:1012100013F8322008497B68DB000B445B681046FA
:101220001946FFF74DFF002301E04FF0FF3318464A
:101230000837BD4680BD00BFD015000080B400AFA8
:10124000314B314A526C42F400525A642F4B2F4AB0
:10125000D2F8202142F00402C3F820212B4B2B4A64
:10126000D2F8202122F44072C3F82021274B274ACC
:10127000D2F8B82022F47062C3F8B820234B234A76
:10128000D2F8B82042F48062C3F8B8201E4B102276
:101290001A6200BF1C4BDB6A03F02003002BF9D05D
:1012A0001B4B1B4A126842F001021A60184B184A85
:1012B000D26842F08072DA60164B174A1A60174BF8
:1012C0000F221A61154B0222C3F8F020134B4FF482
:1012D0008072C3F804234FF06043114AC3F8B02F63
:1012E0004FF060430F4AC3F8802E4FF060434FF039
:1012F0006042D2F8002E42F00102C3F8002EBD4633
:101300005DF8047B704700BF00800C400060004027
:10131000F0ED00E0001000E0FF130140000004E0E9
:1013200055CEACC50900010080B582B000AF4FF0CA
:101330007E637B607B681B68002B01D1002302E089
:10134000FFF77CFF012318460837BD4680BD00BF6C
:1013500008B5074B044613B10021AFF30080054BDD
:101360001868836A03B19847204600F033F800BF3D
:1013700000000000E415000070B50E4B0E4D002477
:10138000ED1AAD101E46AC4204D056F8242090470A
:101390000134F8E700F020F8084D094B0024ED1A5D
:1013A000AD101E46AC4204D056F8242090470134BC
:1013B000F8E770BD68000020680000206C00002085
:1013C0006800002002440346934202D003F8011B48
:1013D000FAE77047FEE700BFF8B500BFF8BC08BCED
:1013E0009E467047F8B500BFF8BC08BC9E467047E3
:1013F0002F4170706C69636174696F6E732F5369EC
:101400006D706C696369747953747564696F5F7624
:10141000332F646576656C6F7065722F73646B73C0
:101420002F65666D33322F76322F656D6C69622FB2
:10143000696E632F656D5F636D752E680000000037
:101440002F4170706C69636174696F6E732F53699B
:101450006D706C696369747953747564696F5F76D4
:10146000332F646576656C6F7065722F73646B7370
:101470002F65666D33322F76322F656D6C69622F62
:101480007372632F656D5F636D752E6300000000DE
:101490002F4170706C69636174696F6E732F53694B
:1014A0006D706C696369747953747564696F5F7684
:1014B000332F646576656C6F7065722F73646B7320
:1014C0002F65666D33322F76322F656D6C69622F12
:1014D000696E632F656D5F6770696F2E680000002D
:1014E0002F4170706C69636174696F6E732F5369FB
:1014F0006D706C696369747953747564696F5F7634
:10150000332F646576656C6F7065722F73646B73CF
:101510002F65666D33322F76322F656D6C69622FC1
:101520007372632F656D5F6770696F2E63000000D3
:101530002F4170706C69636174696F6E732F5369AA
:101540006D706C696369747953747564696F5F76E3
:10155000332F646576656C6F7065722F73646B737F
:101560002F65666D33322F76322F656D6C69622F71
:101570007372632F656D5F73797374656D2E63008D
:101580002F4170706C69636174696F6E732F53695A
:101590006D706C696369747953747564696F5F7693
:1015A000332F646576656C6F7065722F73646B732F
:1015B0002F65666D33322F76322F656D6C69622F21
:1015C000696E632F656D5F6770696F2E680000003C
:1015D00004000000020000000400000003000000FE
:0C15E00043000000080000200000000094
:0815EC0044EBFF7F0100000049
:1015F400006CDC020080000000000000000000001D
:1016040000000000000000000000000000000000D6
:101614000000000000000000E015000000000000D1
:1016240000000000000000000000000000000000B6
:1016340000000000000000000000000000000000A6
:101644000000000000000000000000000000000096
:10165400000000000000000001010000DD000000A7
:041664000000000082
:0400000300000E5992
:00000001FF
